{
  "contractName": "Reboot",
  "abi": [
    {
      "inputs": [
        {
          "internalType": "string",
          "name": "_bio",
          "type": "string"
        }
      ],
      "name": "addBio",
      "outputs": [],
      "stateMutability": "nonpayable",
      "type": "function"
    },
    {
      "inputs": [
        {
          "internalType": "uint256",
          "name": "_id",
          "type": "uint256"
        },
        {
          "internalType": "string",
          "name": "_tag",
          "type": "string"
        }
      ],
      "name": "addPostTag",
      "outputs": [],
      "stateMutability": "nonpayable",
      "type": "function"
    },
    {
      "inputs": [
        {
          "internalType": "string",
          "name": "_str",
          "type": "string"
        }
      ],
      "name": "addTag",
      "outputs": [],
      "stateMutability": "nonpayable",
      "type": "function"
    },
    {
      "inputs": [
        {
          "internalType": "string",
          "name": "_description",
          "type": "string"
        },
        {
          "internalType": "string",
          "name": "_postType",
          "type": "string"
        },
        {
          "internalType": "string",
          "name": "_postHash",
          "type": "string"
        }
      ],
      "name": "create",
      "outputs": [],
      "stateMutability": "nonpayable",
      "type": "function"
    },
    {
      "inputs": [
        {
          "internalType": "string",
          "name": "_name",
          "type": "string"
        }
      ],
      "name": "create",
      "outputs": [],
      "stateMutability": "nonpayable",
      "type": "function"
    },
    {
      "inputs": [],
      "name": "getBio",
      "outputs": [
        {
          "internalType": "string",
          "name": "",
          "type": "string"
        }
      ],
      "stateMutability": "view",
      "type": "function",
      "constant": true
    },
    {
      "inputs": [
        {
          "internalType": "uint256",
          "name": "_id",
          "type": "uint256"
        }
      ],
      "name": "getDescription",
      "outputs": [
        {
          "internalType": "string",
          "name": "",
          "type": "string"
        }
      ],
      "stateMutability": "view",
      "type": "function",
      "constant": true
    },
    {
      "inputs": [],
      "name": "getLastPost",
      "outputs": [
        {
          "internalType": "uint256",
          "name": "",
          "type": "uint256"
        }
      ],
      "stateMutability": "view",
      "type": "function",
      "constant": true
    },
    {
      "inputs": [
        {
          "internalType": "uint256",
          "name": "_id",
          "type": "uint256"
        }
      ],
      "name": "getLikes",
      "outputs": [
        {
          "internalType": "uint256",
          "name": "",
          "type": "uint256"
        }
      ],
      "stateMutability": "view",
      "type": "function",
      "constant": true
    },
    {
      "inputs": [],
      "name": "getPic",
      "outputs": [
        {
          "internalType": "string",
          "name": "",
          "type": "string"
        }
      ],
      "stateMutability": "view",
      "type": "function",
      "constant": true
    },
    {
      "inputs": [
        {
          "internalType": "uint256",
          "name": "_id",
          "type": "uint256"
        }
      ],
      "name": "getPostHash",
      "outputs": [
        {
          "internalType": "string",
          "name": "",
          "type": "string"
        }
      ],
      "stateMutability": "view",
      "type": "function",
      "constant": true
    },
    {
      "inputs": [
        {
          "internalType": "uint256",
          "name": "_post",
          "type": "uint256"
        },
        {
          "internalType": "uint8",
          "name": "_tag",
          "type": "uint8"
        }
      ],
      "name": "getPostTag",
      "outputs": [
        {
          "internalType": "string",
          "name": "",
          "type": "string"
        }
      ],
      "stateMutability": "view",
      "type": "function",
      "constant": true
    },
    {
      "inputs": [
        {
          "internalType": "uint256",
          "name": "_id",
          "type": "uint256"
        }
      ],
      "name": "getPostType",
      "outputs": [
        {
          "internalType": "string",
          "name": "",
          "type": "string"
        }
      ],
      "stateMutability": "view",
      "type": "function",
      "constant": true
    },
    {
      "inputs": [
        {
          "internalType": "uint8",
          "name": "_id",
          "type": "uint8"
        }
      ],
      "name": "getTag",
      "outputs": [
        {
          "internalType": "string",
          "name": "",
          "type": "string"
        }
      ],
      "stateMutability": "view",
      "type": "function",
      "constant": true
    },
    {
      "inputs": [
        {
          "internalType": "uint256",
          "name": "_id",
          "type": "uint256"
        }
      ],
      "name": "getTags",
      "outputs": [
        {
          "internalType": "uint8",
          "name": "",
          "type": "uint8"
        }
      ],
      "stateMutability": "view",
      "type": "function",
      "constant": true
    },
    {
      "inputs": [],
      "name": "getTags",
      "outputs": [
        {
          "internalType": "uint8",
          "name": "",
          "type": "uint8"
        }
      ],
      "stateMutability": "view",
      "type": "function",
      "constant": true
    },
    {
      "inputs": [],
      "name": "getUsername",
      "outputs": [
        {
          "internalType": "string",
          "name": "",
          "type": "string"
        }
      ],
      "stateMutability": "view",
      "type": "function",
      "constant": true
    },
    {
      "inputs": [
        {
          "internalType": "uint256",
          "name": "_id",
          "type": "uint256"
        }
      ],
      "name": "like",
      "outputs": [
        {
          "internalType": "bool",
          "name": "",
          "type": "bool"
        }
      ],
      "stateMutability": "nonpayable",
      "type": "function"
    },
    {
      "inputs": [
        {
          "internalType": "address",
          "name": "",
          "type": "address"
        }
      ],
      "name": "profile",
      "outputs": [
        {
          "internalType": "string",
          "name": "name",
          "type": "string"
        },
        {
          "internalType": "string",
          "name": "pic",
          "type": "string"
        },
        {
          "internalType": "string",
          "name": "bio",
          "type": "string"
        },
        {
          "internalType": "uint8",
          "name": "tags",
          "type": "uint8"
        }
      ],
      "stateMutability": "view",
      "type": "function",
      "constant": true
    },
    {
      "inputs": [
        {
          "internalType": "string",
          "name": "_hash",
          "type": "string"
        }
      ],
      "name": "uploadProfilePic",
      "outputs": [],
      "stateMutability": "nonpayable",
      "type": "function"
    },
    {
      "inputs": [],
      "name": "hasProfile",
      "outputs": [
        {
          "internalType": "bool",
          "name": "",
          "type": "bool"
        }
      ],
      "stateMutability": "view",
      "type": "function",
      "constant": true
    }
  ],
  "bytecode": "0x6080604052600060025534801561001557600080fd5b506121b9806100256000396000f3fe608060405234801561001057600080fd5b50600436106101375760003560e01c80638711b269116100b8578063c1eee7fd1161007c578063c1eee7fd14610b9d578063cababab614610bbb578063de0cc45b14610c3e578063e82935da14610cf9578063fa165e8f14610d3d578063fe22bda614610dc057610137565b80638711b26914610839578063995d9ab7146108e05780639dd9d0fd14610901578063a209081e14610aa0578063b6a46b3b14610ae257610137565b80634925ec55116100ff5780634925ec55146103b757806358194def1461045e5780635d28560a14610519578063681f3e6d146107025780636c9f47011461078557610137565b806316ae51611461013c57806329d29cb31461015c578063317faa55146101a15780633d3ac846146102665780634356a73c1461030d575b600080fd5b610144610e7b565b60405180821515815260200191505060405180910390f35b6101886004803603602081101561017257600080fd5b8101908080359060200190929190505050610eeb565b604051808260ff16815260200191505060405180910390f35b610264600480360360408110156101b757600080fd5b8101908080359060200190929190803590602001906401000000008111156101de57600080fd5b8201836020820111156101f057600080fd5b8035906020019184600183028401116401000000008311171561021257600080fd5b91908080601f016020809104026020016040519081016040528093929190818152602001838380828437600081840152601f19601f820116905080830192505050505050509192919290505050610f18565b005b6102926004803603602081101561027c57600080fd5b8101908080359060200190929190505050611061565b6040518080602001828103825283818151815260200191508051906020019080838360005b838110156102d25780820151818401526020810190506102b7565b50505050905090810190601f1680156102ff5780820380516001836020036101000a031916815260200191505b509250505060405180910390f35b61033c6004803603602081101561032357600080fd5b81019080803560ff169060200190929190505050611119565b6040518080602001828103825283818151815260200191508051906020019080838360005b8381101561037c578082015181840152602081019050610361565b50505050905090810190601f1680156103a95780820380516001836020036101000a031916815260200191505b509250505060405180910390f35b6103e3600480360360208110156103cd57600080fd5b8101908080359060200190929190505050611211565b6040518080602001828103825283818151815260200191508051906020019080838360005b83811015610423578082015181840152602081019050610408565b50505050905090810190601f1680156104505780820380516001836020036101000a031916815260200191505b509250505060405180910390f35b6105176004803603602081101561047457600080fd5b810190808035906020019064010000000081111561049157600080fd5b8201836020820111156104a357600080fd5b803590602001918460018302840111640100000000831117156104c557600080fd5b91908080601f016020809104026020016040519081016040528093929190818152602001838380828437600081840152601f19601f8201169050808301925050505050505091929192905050506112c9565b005b6107006004803603606081101561052f57600080fd5b810190808035906020019064010000000081111561054c57600080fd5b82018360208201111561055e57600080fd5b8035906020019184600183028401116401000000008311171561058057600080fd5b91908080601f016020809104026020016040519081016040528093929190818152602001838380828437600081840152601f19601f820116905080830192505050505050509192919290803590602001906401000000008111156105e357600080fd5b8201836020820111156105f557600080fd5b8035906020019184600183028401116401000000008311171561061757600080fd5b91908080601f016020809104026020016040519081016040528093929190818152602001838380828437600081840152601f19601f8201169050808301925050505050505091929192908035906020019064010000000081111561067a57600080fd5b82018360208201111561068c57600080fd5b803590602001918460018302840111640100000000831117156106ae57600080fd5b91908080601f016020809104026020016040519081016040528093929190818152602001838380828437600081840152601f19601f820116905080830192505050505050509192919290505050611322565b005b61070a611489565b6040518080602001828103825283818151815260200191508051906020019080838360005b8381101561074a57808201518184015260208101905061072f565b50505050905090810190601f1680156107775780820380516001836020036101000a031916815260200191505b509250505060405180910390f35b6107be6004803603604081101561079b57600080fd5b8101908080359060200190929190803560ff16906020019092919050505061156a565b6040518080602001828103825283818151815260200191508051906020019080838360005b838110156107fe5780820151818401526020810190506107e3565b50505050905090810190601f16801561082b5780820380516001836020036101000a031916815260200191505b509250505060405180910390f35b6108656004803603602081101561084f57600080fd5b8101908080359060200190929190505050611637565b6040518080602001828103825283818151815260200191508051906020019080838360005b838110156108a557808201518184015260208101905061088a565b50505050905090810190601f1680156108d25780820380516001836020036101000a031916815260200191505b509250505060405180910390f35b6108e86116ef565b604051808260ff16815260200191505060405180910390f35b6109436004803603602081101561091757600080fd5b81019080803573ffffffffffffffffffffffffffffffffffffffff169060200190929190505050611745565b604051808060200180602001806020018560ff168152602001848103845288818151815260200191508051906020019080838360005b83811015610994578082015181840152602081019050610979565b50505050905090810190601f1680156109c15780820380516001836020036101000a031916815260200191505b50848103835287818151815260200191508051906020019080838360005b838110156109fa5780820151818401526020810190506109df565b50505050905090810190601f168015610a275780820380516001836020036101000a031916815260200191505b50848103825286818151815260200191508051906020019080838360005b83811015610a60578082015181840152602081019050610a45565b50505050905090810190601f168015610a8d5780820380516001836020036101000a031916815260200191505b5097505050505050505060405180910390f35b610acc60048036036020811015610ab657600080fd5b810190808035906020019092919050505061194a565b6040518082815260200191505060405180910390f35b610b9b60048036036020811015610af857600080fd5b8101908080359060200190640100000000811115610b1557600080fd5b820183602082011115610b2757600080fd5b80359060200191846001830284011164010000000083111715610b4957600080fd5b91908080601f016020809104026020016040519081016040528093929190818152602001838380828437600081840152601f19601f82011690508083019250505050505050919291929050505061196a565b005b610ba5611a4c565b6040518082815260200191505060405180910390f35b610bc3611a56565b6040518080602001828103825283818151815260200191508051906020019080838360005b83811015610c03578082015181840152602081019050610be8565b50505050905090810190601f168015610c305780820380516001836020036101000a031916815260200191505b509250505060405180910390f35b610cf760048036036020811015610c5457600080fd5b8101908080359060200190640100000000811115610c7157600080fd5b820183602082011115610c8357600080fd5b80359060200191846001830284011164010000000083111715610ca557600080fd5b91908080601f016020809104026020016040519081016040528093929190818152602001838380828437600081840152601f19601f820116905080830192505050505050509192919290505050611b37565b005b610d2560048036036020811015610d0f57600080fd5b8101908080359060200190929190505050611e2d565b60405180821515815260200191505060405180910390f35b610d45611f32565b6040518080602001828103825283818151815260200191508051906020019080838360005b83811015610d85578082015181840152602081019050610d6a565b50505050905090810190601f168015610db25780820380516001836020036101000a031916815260200191505b509250505060405180910390f35b610e7960048036036020811015610dd657600080fd5b8101908080359060200190640100000000811115610df357600080fd5b820183602082011115610e0557600080fd5b80359060200191846001830284011164010000000083111715610e2757600080fd5b91908080601f016020809104026020016040519081016040528093929190818152602001838380828437600081840152601f19601f820116905080830192505050505050509192919290505050612013565b005b6000806000803373ffffffffffffffffffffffffffffffffffffffff1673ffffffffffffffffffffffffffffffffffffffff1681526020019081526020016000206000018054600181600116156101000203166002900490501115610ee35760019050610ee8565b600090505b90565b60006003600083815260200190815260200160002060050160009054906101000a900460ff169050919050565b3373ffffffffffffffffffffffffffffffffffffffff166003600084815260200190815260200160002060000160009054906101000a900473ffffffffffffffffffffffffffffffffffffffff1673ffffffffffffffffffffffffffffffffffffffff1614610f8657600080fd5b60056003600084815260200190815260200160002060050160009054906101000a900460ff1660ff1610610fb957600080fd5b60016003600084815260200190815260200160002060050160008282829054906101000a900460ff160192506101000a81548160ff021916908360ff160217905550806005600084815260200190815260200160002060006003600086815260200190815260200160002060050160009054906101000a900460ff1660ff1660ff168152602001908152602001600020908051906020019061105c92919061206c565b505050565b6060600360008381526020019081526020016000206003018054600181600116156101000203166002900480601f01602080910402602001604051908101604052809291908181526020018280546001816001161561010002031660029004801561110d5780601f106110e25761010080835404028352916020019161110d565b820191906000526020600020905b8154815290600101906020018083116110f057829003601f168201915b50505050509050919050565b6060600160003373ffffffffffffffffffffffffffffffffffffffff1673ffffffffffffffffffffffffffffffffffffffff16815260200190815260200160002060008360ff1660ff1681526020019081526020016000208054600181600116156101000203166002900480601f0160208091040260200160405190810160405280929190818152602001828054600181600116156101000203166002900480156112055780601f106111da57610100808354040283529160200191611205565b820191906000526020600020905b8154815290600101906020018083116111e857829003601f168201915b50505050509050919050565b6060600360008381526020019081526020016000206001018054600181600116156101000203166002900480601f0160208091040260200160405190810160405280929190818152602001828054600181600116156101000203166002900480156112bd5780601f10611292576101008083540402835291602001916112bd565b820191906000526020600020905b8154815290600101906020018083116112a057829003601f168201915b50505050509050919050565b806000803373ffffffffffffffffffffffffffffffffffffffff1673ffffffffffffffffffffffffffffffffffffffff168152602001908152602001600020600201908051906020019061131e92919061206c565b5050565b61132a6120ec565b33816000019073ffffffffffffffffffffffffffffffffffffffff16908173ffffffffffffffffffffffffffffffffffffffff168152505083816020018190525082816040018190525081816060018190525060008160a0019060ff16908160ff168152505060016002600082825401925050819055508060036000600254815260200190815260200160002060008201518160000160006101000a81548173ffffffffffffffffffffffffffffffffffffffff021916908373ffffffffffffffffffffffffffffffffffffffff160217905550602082015181600101908051906020019061141a92919061206c565b50604082015181600201908051906020019061143792919061206c565b50606082015181600301908051906020019061145492919061206c565b506080820151816004015560a08201518160050160006101000a81548160ff021916908360ff16021790555090505050505050565b60606000803373ffffffffffffffffffffffffffffffffffffffff1673ffffffffffffffffffffffffffffffffffffffff1681526020019081526020016000206000018054600181600116156101000203166002900480601f0160208091040260200160405190810160405280929190818152602001828054600181600116156101000203166002900480156115605780601f1061153557610100808354040283529160200191611560565b820191906000526020600020905b81548152906001019060200180831161154357829003601f168201915b5050505050905090565b60606005600084815260200190815260200160002060008360ff1660ff1681526020019081526020016000208054600181600116156101000203166002900480601f01602080910402602001604051908101604052809291908181526020018280546001816001161561010002031660029004801561162a5780601f106115ff5761010080835404028352916020019161162a565b820191906000526020600020905b81548152906001019060200180831161160d57829003601f168201915b5050505050905092915050565b6060600360008381526020019081526020016000206002018054600181600116156101000203166002900480601f0160208091040260200160405190810160405280929190818152602001828054600181600116156101000203166002900480156116e35780601f106116b8576101008083540402835291602001916116e3565b820191906000526020600020905b8154815290600101906020018083116116c657829003601f168201915b50505050509050919050565b60008060003373ffffffffffffffffffffffffffffffffffffffff1673ffffffffffffffffffffffffffffffffffffffff16815260200190815260200160002060030160009054906101000a900460ff16905090565b6000602052806000526040600020600091509050806000018054600181600116156101000203166002900480601f0160208091040260200160405190810160405280929190818152602001828054600181600116156101000203166002900480156117f15780601f106117c6576101008083540402835291602001916117f1565b820191906000526020600020905b8154815290600101906020018083116117d457829003601f168201915b505050505090806001018054600181600116156101000203166002900480601f01602080910402602001604051908101604052809291908181526020018280546001816001161561010002031660029004801561188f5780601f106118645761010080835404028352916020019161188f565b820191906000526020600020905b81548152906001019060200180831161187257829003601f168201915b505050505090806002018054600181600116156101000203166002900480601f01602080910402602001604051908101604052809291908181526020018280546001816001161561010002031660029004801561192d5780601f106119025761010080835404028352916020019161192d565b820191906000526020600020905b81548152906001019060200180831161191057829003601f168201915b5050505050908060030160009054906101000a900460ff16905084565b600060036000838152602001908152602001600020600401549050919050565b61197261213b565b8181600001819052506000816060019060ff16908160ff1681525050806000803373ffffffffffffffffffffffffffffffffffffffff1673ffffffffffffffffffffffffffffffffffffffff16815260200190815260200160002060008201518160000190805190602001906119e992919061206c565b506020820151816001019080519060200190611a0692919061206c565b506040820151816002019080519060200190611a2392919061206c565b5060608201518160030160006101000a81548160ff021916908360ff1602179055509050505050565b6000600254905090565b60606000803373ffffffffffffffffffffffffffffffffffffffff1673ffffffffffffffffffffffffffffffffffffffff1681526020019081526020016000206001018054600181600116156101000203166002900480601f016020809104026020016040519081016040528092919081815260200182805460018160011615610100020316600290048015611b2d5780601f10611b0257610100808354040283529160200191611b2d565b820191906000526020600020905b815481529060010190602001808311611b1057829003601f168201915b5050505050905090565b611b3f61213b565b6000803373ffffffffffffffffffffffffffffffffffffffff1673ffffffffffffffffffffffffffffffffffffffff168152602001908152602001600020604051806080016040529081600082018054600181600116156101000203166002900480601f016020809104026020016040519081016040528092919081815260200182805460018160011615610100020316600290048015611c215780601f10611bf657610100808354040283529160200191611c21565b820191906000526020600020905b815481529060010190602001808311611c0457829003601f168201915b50505050508152602001600182018054600181600116156101000203166002900480601f016020809104026020016040519081016040528092919081815260200182805460018160011615610100020316600290048015611cc35780601f10611c9857610100808354040283529160200191611cc3565b820191906000526020600020905b815481529060010190602001808311611ca657829003601f168201915b50505050508152602001600282018054600181600116156101000203166002900480601f016020809104026020016040519081016040528092919081815260200182805460018160011615610100020316600290048015611d655780601f10611d3a57610100808354040283529160200191611d65565b820191906000526020600020905b815481529060010190602001808311611d4857829003601f168201915b505050505081526020016003820160009054906101000a900460ff1660ff1660ff1681525050905060ff816060015160ff1610611da157600080fd5b6001816060018181510191509060ff16908160ff168152505081600160003373ffffffffffffffffffffffffffffffffffffffff1673ffffffffffffffffffffffffffffffffffffffff1681526020019081526020016000206000836060015160ff1660ff1681526020019081526020016000209080519060200190611e2892919061206c565b505050565b6000600460003373ffffffffffffffffffffffffffffffffffffffff1673ffffffffffffffffffffffffffffffffffffffff168152602001908152602001600020600083815260200190815260200160002060009054906101000a900460ff16611f28576001600460003373ffffffffffffffffffffffffffffffffffffffff1673ffffffffffffffffffffffffffffffffffffffff168152602001908152602001600020600084815260200190815260200160002060006101000a81548160ff0219169083151502179055506001600360008481526020019081526020016000206004016000828254019250508190555060019050611f2d565b600090505b919050565b60606000803373ffffffffffffffffffffffffffffffffffffffff1673ffffffffffffffffffffffffffffffffffffffff1681526020019081526020016000206002018054600181600116156101000203166002900480601f0160208091040260200160405190810160405280929190818152602001828054600181600116156101000203166002900480156120095780601f10611fde57610100808354040283529160200191612009565b820191906000526020600020905b815481529060010190602001808311611fec57829003601f168201915b5050505050905090565b806000803373ffffffffffffffffffffffffffffffffffffffff1673ffffffffffffffffffffffffffffffffffffffff168152602001908152602001600020600101908051906020019061206892919061206c565b5050565b828054600181600116156101000203166002900490600052602060002090601f016020900481019282601f106120ad57805160ff19168380011785556120db565b828001600101855582156120db579182015b828111156120da5782518255916020019190600101906120bf565b5b5090506120e89190612166565b5090565b6040518060c00160405280600073ffffffffffffffffffffffffffffffffffffffff16815260200160608152602001606081526020016060815260200160008152602001600060ff1681525090565b6040518060800160405280606081526020016060815260200160608152602001600060ff1681525090565b5b8082111561217f576000816000905550600101612167565b509056fea264697066735822122084b99a98d5907bd3bc8c3935471f528916a1570e546a9437bbfb3d12e8f35ac864736f6c63430007000033",
  "immutableReferences": {},
  "source": "// SPDX-License-Identifier: MIT\r\npragma solidity ^0.7.0;\r\nimport \"./Profile.sol\";\r\nimport \"./Post.sol\";\r\n\r\ncontract Reboot is Profile, Post {\r\n    function hasProfile() public view returns(bool){\r\n        if(bytes(Profile.profile[msg.sender].name).length > 0)\r\n            return true;\r\n        else\r\n            return false;\r\n    }\r\n}",
  "sourcePath": "D:/Dev_Projects/rebot/contracts/Reboot.sol",
  "compiler": {
    "name": "solc",
    "version": "0.7.0+commit.9e61f92b.Emscripten.clang"
  },
  "schemaVersion": "3.3.3",
  "updatedAt": "2021-03-07T00:55:48.890Z",
  "networkType": "ethereum",
  "devdoc": {
    "kind": "dev",
    "methods": {},
    "version": 1
  },
  "userdoc": {
    "kind": "user",
    "methods": {},
    "version": 1
  }
}